S01700006C636442757A7A6572574D6F746F722E73726563F0
S113000071C000008EC000008CC000008AC00000D7
S113001088C0000086C0000084C0000082C00000C8
S113002080C000007EC000007CC000007AC00000D8
S113003078C0000076C0000074C0000072C00000E8
S113004070C000006EC000006CC000006AC00000F8
S113005068C0000066C0000064C0000062C0000008
S113006060C000005EC000005CC000005AC0000018
S113007058C0000056C0000054C0000052C0000028
S113008050C000004EC000004CC000004AC0000038
S113009048C0000046C0000044C0000042C0000048
S11300A040C000003EC000003CC000003AC0000058
S11300B038C0000036C0000034C0000032C0000068
S11300C030C000002EC000002CC000002AC0000078
S11300D028C0000026C0000024C0000022C0000088
S11300E020C0000011241FBECFEFD1E2DEBFCDBF80
S11300F000E00CBF12E0A0E0B2E0E8EDF5E000E0C3
S11301000BBF02C007900D92A233B107D9F722E0CA
S1130110A2E3B2E001C01D92A233B207E1F7CAD153
S113012059C26ECF87B1876F87B988B1887088B993
S1130130089586E69EE00197F1F7000088B18E7F6E
S113014088B988B18D7F88B980E388B998B1946003
S113015098B9EFEFF7E43197F1F700C0000098B1D8
S11301609B7F98B9E6E6FEE03197F1F7000098B17D
S11301709E7F98B998B19D7F98B988B998B19460D9
S113018098B9EFEFF7E43197F1F700C0000098B1A8
S11301909B7F98B9E6E6FEE03197F1F7000098B14D
S11301A09E7F98B998B19D7F98B988B988B18460C9
S11301B088B98FEF97E40197F1F700C0000088B188
S11301C08B7F88B9E6E6FEE03197F1F7000088B14D
S11301D08E7F88B988B18D7F88B980E288B988B16B
S11301E0846088B98FEF97E40197F1F700C00000AD
S11301F088B18B7F88B90895382F307F28B12F704C
S113020028B998B1932B98B998B19E7F98B998B1B1
S11302109D7F98B998B1946098B9EFEFF7E431975E
S1130220F1F700C0000098B19B7F98B98295807F58
S113023098B19F7098B998B1892B88B988B18E7F8D
S113024088B988B18D7F88B988B1846088B98FEF07
S113025097E40197F1F700C0000088B18B7F88B95B
S1130260089567DF86E69EE00197F1F7000088E2D3
S1130270C3DF81E0C1DF86E0BFDF8EE0BDDF80E861
S1130280BBCF089580E8B8CF0895823069F018F4A0
S1130290813031F00895833059F0843069F0089545
S11302A08FE7860FA9CF08958FEB860FA5CF08950A
S11302B083E9860FA1CF089583ED860F9DCF08951E
S11302C0CF93C42FE2DF2C2F207F98B19F7098B971
S11302D088B1822B88B988B1816088B988B18D7F53
S11302E088B988B1846088B98FEF97E40197F1F7F2
S11302F000C0000088B18B7F88B9C295C07F88B1E7
S11303008F7088B988B1C82BC8B988B1816088B9A1
S113031088B18D7F88B988B1846088B98FEF97E4FC
S11303200197F1F700C0000088B18B7F88B9CF91A5
S1130330089588B1886088B92FEF8FEF9CE221502F
S113034080409040E1F700C0000088B118B82FEF5A
S11303508FEF9CE2215080409040E1F700C0000004
S11303600895DF92EF92FF920F931F93CF93DF9341
S1130370CDB7DEB7E2970FB6F894DEBF0FBECDBFA0
S1130380D82E7B0189E0E0E0F2E0DE0111960190D5
S11303900D928A95E1F71A868AE0E8E2F2E0DE013E
S11303A01B9601900D928A95E1F786E0EAE0F2E06F
S11303B0DE01559601900D928A95E1F784E0FE01E5
S11303C07B96DF01982F1D929A95E9F797E0E4E177
S11303D0F2E0DE015F9601900D929A95E1F7FE013D
S11303E0B69693E0DF011D929A95E9F796E0EEE167
S11303F0F2E0DE01999601900D929A95E1F7FE01E3
S1130400BF96DF011D928A95E9F742305105A1F0AC
S113041024F44130510541F017C04330510541F0F7
S11304204430510569F010C08E010F5F1F4F18C092
S11304308E010B5E1F4F14C08E01055F1F4F10C04D
S11304408E01015E1F4F0CC08E01075D1F4F08C057
S11304506E2D8D2D35DFBFEFEB1AFB0A0F5F1F4F9B
S1130460F80140814032A1F7E2960FB6F894DEBF5E
S11304700FBECDBFDF91CF911F910F91FF90EF90F1
S1130480DF90089582B1807F82B986E082B941E02D
S113049050E064E070E081E090E063CF089543E0D1
S11304A050E064E070E081E090E05BDF82B1856061
S11304B082B908958FEF809304011092050188E0BA
S11304C087B918B881B18F6081B982B1807F82B950
S11304D0EAE0F1E0808188618083EBE0F1E08081F3
S11304E0886180831FDEBDDECDDE00E010E0EE24F7
S11304F0E394F12C6AC0E5E0F1E080818E298083E9
S11305000F5F1F4FC0E0D0E00BC013DF2FEF3FEFB2
S113051089E5215030408040E1F700C00000219679
S1130520C017D10794F3EE0CFF1C6894E0F8AADF1F
S11305309FEF2FE736E081E091502040304080402B
S1130540D9F700C00000ABDF9FEF2FEF33EB9150E2
S113055020403040E1F700C0000094DF8FEF9FE7B8
S113056026E031E08150904020403040D9F700C06F
S1130570000095DF8FEF9FEF23EB815090402040E8
S1130580E1F700C000007EDF3FEF8FE796E021E057
S11305903150804090402040D9F700C000007FDFF8
S11305A03FEF8FEF93EB315080409040E1F700C074
S11305B0000068DF2FEF3FE786E091E021503040F4
S11305C080409040D9F700C000002FEFE216F104FC
S10B05D0E1F391CFF894FFCF91
S11305D8464F52574152442000004C45465420008F
S11305E800000000524947485420000000005354BA
S11305F84F502000000000004241434B57415244F1
S10506082000CC
S9030000FC
