S01600006C63645762757A7A6572426565702E7372656366
S113000071C000008EC000008CC000008AC00000D7
S113001088C0000086C0000084C0000082C00000C8
S113002080C000007EC000007CC000007AC00000D8
S113003078C0000076C0000074C0000072C00000E8
S113004070C000006EC000006CC000006AC00000F8
S113005068C0000066C0000064C0000062C0000008
S113006060C000005EC000005CC000005AC0000018
S113007058C0000056C0000054C0000052C0000028
S113008050C000004EC000004CC000004AC0000038
S113009048C0000046C0000044C0000042C0000048
S11300A040C000003EC000003CC000003AC0000058
S11300B038C0000036C0000034C0000032C0000068
S11300C030C000002EC000002CC000002AC0000078
S11300D028C0000026C0000024C0000022C0000088
S11300E020C0000011241FBECFEFD1E2DEBFCDBF80
S11300F000E00CBF12E0A0E0B2E0ECE8F4E000E0C5
S11301000BBF02C007900D92A233B107D9F722E0CA
S1130110A2E3B2E001C01D92A233B207E1F75ED1BF
S1130120B3C16ECF87B1876F87B988B1887088B93A
S1130130089586E69EE00197F1F7000088B18E7F6E
S113014088B988B18D7F88B980E388B998B1946003
S113015098B9EFEFF7E43197F1F700C0000098B1D8
S11301609B7F98B9E6E6FEE03197F1F7000098B17D
S11301709E7F98B998B19D7F98B988B998B19460D9
S113018098B9EFEFF7E43197F1F700C0000098B1A8
S11301909B7F98B9E6E6FEE03197F1F7000098B14D
S11301A09E7F98B998B19D7F98B988B988B18460C9
S11301B088B98FEF97E40197F1F700C0000088B188
S11301C08B7F88B9E6E6FEE03197F1F7000088B14D
S11301D08E7F88B988B18D7F88B980E288B988B16B
S11301E0846088B98FEF97E40197F1F700C00000AD
S11301F088B18B7F88B90895382F307F28B12F704C
S113020028B998B1932B98B998B19E7F98B998B1B1
S11302109D7F98B998B1946098B9EFEFF7E431975E
S1130220F1F700C0000098B19B7F98B98295807F58
S113023098B19F7098B998B1892B88B988B18E7F8D
S113024088B988B18D7F88B988B1846088B98FEF07
S113025097E40197F1F700C0000088B18B7F88B95B
S1130260089567DF86E69EE00197F1F7000088E2D3
S1130270C3DF81E0C1DF86E0BFDF8EE0BDDF80E861
S1130280BBCF089580E8B8CF0895823069F018F4A0
S1130290813031F00895833059F0843069F0089545
S11302A08FE7860FA9CF08958FEB860FA5CF08950A
S11302B083E9860FA1CF089583ED860F9DCF08951E
S11302C0CF93C42FE2DF2C2F207F98B19F7098B971
S11302D088B1822B88B988B1816088B988B18D7F53
S11302E088B988B1846088B98FEF97E40197F1F7F2
S11302F000C0000088B18B7F88B9C295C07F88B1E7
S11303008F7088B988B1C82BC8B988B1816088B9A1
S113031088B18D7F88B988B1846088B98FEF97E4FC
S11303200197F1F700C0000088B18B7F88B9CF91A5
S1130330089588B1886088B92FE38DE093E0215057
S113034080409040E1F700C0000088B118B82FE366
S11303508DE093E0215080409040E1F700C0000020
S11303600895EF92FF920F931F93CF93DF93CDB72E
S1130370DEB7E2970FB6F894DEBF0FBECDBF80E3C1
S1130380E0E0F2E0DE01119601900D928A95E1F72A
S11303901AAA19AA8A010F5F1F4F780108C0602F9B
S11303A081E08EDF8FEFE81AF80A0F5F1F4FE1E05C
S11303B0F0E0EC0FFD1FEE0DFF1D4081403279F798
S11303C0C701E2960FB6F894DEBF0FBECDBFDF9132
S11303D0CF911F910F91FF90EF900895CF92DF92EC
S11303E0EF92FF920F931F93CF93DF938FEF80933E
S11303F004011092050188E087B918B893DE31DF53
S113040041DFC12CD12C00E010E0EE24E394F12C68
S11304102CC0E5E0F1E080818E2980830F5F1F4FBF
S1130420C0E0D0E00BC085DF2FE78AE196E02150E1
S113043080409040E1F700C000002196C017D1072A
S113044094F3EE0CFF1C6894E0F8A60161E070E000
S113045081E090E086DF6C012FE78AE196E021508D
S113046080409040E1F700C000002FEFE216F10455
S113047081F680E090E0DF91CF911F910F91FF9082
S10F0480EF90DF90CF900895F894FFCF28
S113048C50524153414E47204147415257414C2011
S113049C524F4C4C204E554D42455220313930313F
S11304AC3032303120454345204252414E434800BE
S10504BC00003A
S9030000FC
