:100000000C9475000C94A5030C94A5030C94A50303
:100010000C94A5030C94A5030C94A5030C94A503C0
:100020000C94A5030C94A5030C94A5030C94A503B0
:100030000C94A5030C94A5030C94A5030C94A503A0
:100040000C94A5030C94A5030C94A5030C94A50390
:100050000C94A5030C94A5030C94A5030C94A50380
:100060000C94A5030C94A5030C94A5030C94A50370
:100070000C94A5030C94A5030C94A5030C94A50360
:100080000C94A5030C94A5030C94A5030C94A50350
:100090000C94A5030C94A5030C94A5030C94A50340
:1000A0000C94A5030C94A5030C94A5030C94A50330
:1000B0000C94A5030C94A5030C94A5030C94A50320
:1000C0000C94A5030C94A5030C94A5030C94A50310
:1000D0000C94A5030C94A5030C94A5030C94A50300
:1000E0000C94A5030200020C800011241FBECFEF68
:1000F000D1E2DEBFCDBF00E00CBFE4EEF0E040E0B7
:1001000019C0B791A79137912791079107FD0EC0AC
:1001100097918791EF01F92FE82F0BBF07900D9270
:10012000A217B307D9F7FE011BBE04C01D92A21788
:10013000B307E1F7E93EF40721F70E940F020C94A0
:060140007203F894FFCFEA
:10014600CF92DF92EF92FF920F931F93CF93DF939D
:100156000F92CDB7DEB7082F162F6A0179010E94DC
:10016600C3028DE28983DD205CF4D194C194D10869
:10017600AE014F5F5F4F612F802F0E9414031F5FF8
:10018600002311F0111103C00E94960304C0612FD1
:10019600802F0E94C30225E0E216F10499F4C601FD
:1001A60060E177E20E942A03AB01405D5F4F409316
:1001B600000250930102612F802F0E9454021F5F9C
:1001C60081E001C080E034E0E316F10411F08130F3
:1001D60071F5C60168EE73E00E942A03709303026C
:1001E600609302029B01ADECBCEC0E946303969502
:1001F60087959695879596958795AC01440F551FDB
:10020600880F991F880F991F880F991F840F951FB4
:10021600281B390BA901405D5F4F50930B02409399
:100226000A02612F802F0E9454021F5F81E033E093
:10023600E316F10411F0813071F5C60164E670E051
:100246000E942A0370930302609302029B01ADECA5
:10025600BCEC0E946303969587959695879596952F
:100266008795AC01440F551F880F991F880F991F5A
:10027600880F991F840F951F281B390BA901405D14
:100286005F4F5093070240930602612F802F0E9412
:1002960054021F5F81E032E0E316F10411F0813071
:1002A60071F5C6016AE070E00E942A0370930302AA
:1002B600609302029B01ADECBCEC0E946303969531
:1002C60087959695879596958795AC01440F551F0A
:1002D600880F991F880F991F880F991F840F951FE4
:1002E600281B390BA901405D5F4F509305024093CF
:1002F6000402612F802F0E9454021F5F81E031E0CB
:10030600E316F10411F0813089F4C6016AE070E069
:100316000E942A03AC01405D5F4F40930802509350
:100326000902612F802F0E9454021F5F86E0E816A3
:10033600F1042CF045E4612F802F0E9454020F90A7
:10034600DF91CF911F910F91FF90EF90DF90CF90AB
:02035600089508
:1003580086E69EE00197F1F7000088B18E7F88B9A4
:1003680088B18D7F88B980E388B998B1946098B9CD
:10037800EFEFF7E43197F1F700C0000098B19B7FE9
:1003880098B9E6E6FEE03197F1F7000098B19E7F54
:1003980098B998B19D7F98B988B998B1946098B97F
:1003A800EFEFF7E43197F1F700C0000098B19B7FB9
:1003B80098B9E6E6FEE03197F1F7000098B19E7F24
:1003C80098B998B19D7F98B988B988B1846088B97F
:1003D8008FEF97E40197F1F700C0000088B18B7F99
:1003E80088B9E6E6FEE03197F1F7000088B18E7F24
:1003F80088B988B18D7F88B980E288B988B184606E
:1004080088B98FEF97E40197F1F700C0000088B131
:060418008B7F88B90895F6
:10041E000E9484038FEF809304011092050188E0FF
:10042E0087B918B881B18F6081B982B1807F82B9E6
:10043E00EAE0F1E0808188618083EBE0F1E0808189
:10044E00886180830E947D030E94FD020E949603B4
:10045E00C5E2D1E0688188810E949103488150E015
:10046E0023E030E066E081E00E94A3000E949A0340
:10047E002FEF8FEF9CE2215080409040E1F700C0BB
:10048E0000000E949E032FEF8FE796E121508040DF
:0A049E009040E1F700C00000DBCF42
:1004A800CF93C42F0E94C3022C2F207F98B19F7036
:1004B80098B988B1822B88B988B1816088B988B128
:1004C8008D7F88B988B1846088B98FEF97E40197E8
:1004D800F1F700C0000088B18B7F88B9C295C07F52
:1004E80088B18F7088B988B1C82BC8B988B18160C4
:1004F80088B988B18D7F88B988B1846088B98FEF51
:1005080097E40197F1F700C0000088B18B7F88B9A4
:04051800CF910895E2
:10051C00382F307F28B12F7028B998B1932B98B908
:10052C0098B19E7F98B998B19D7F98B998B1946015
:10053C0098B9EFEFF7E43197F1F700C0000098B1EC
:10054C009B7F98B98295807F98B19F7098B998B12C
:10055C00892B88B988B18E7F88B988B18D7F88B98D
:10056C0088B1846088B98FEF97E40197F1F700C0E8
:0A057C00000088B18B7F88B9089554
:10058600823071F018F4813031F00895833069F0CB
:10059600843081F008958FE7860F0E948E020895B9
:1005A6008FEB860F0E948E02089583E9860F0E94C4
:0E05B6008E02089583ED860F0E948E02089536
:1005C400E1E2F1E010828FEF8093250191E09093B6
:1005D4002401109229018093280110922B01809309
:1005E4002A0110922D0180932C0189EA8093200125
:0605F40089E080830895F8
:1005FA000E94AC0186E69EE00197F1F7000088E2CE
:10060A000E948E0281E00E948E0286E00E948E0283
:0E061A008EE00E948E0280E80E948E020895FB
:100628000F931F93CF93DF93082F162FEA0106C06D
:10063800612F802F0E94540221961F5F488141112B
:0C064800F7CFDF91CF911F910F91089523
:1006540097FB072E16F4009407D077FD09D00E946B
:100664003E0307FC05D03EF4909581959F4F089575
:08067400709561957F4F089518
:10067C00AA1BBB1B51E107C0AA1FBB1FA617B707BC
:10068C0010F0A61BB70B881F991F5A95A9F78095D8
:08069C009095BC01CD01089509
:1006A40081B18F6081B982B1807F82B9EAE0F1E0E3
:1006B400808188618083EBE0F1E0808188618083C0
:0206C400089597
:1006C600A29FB001B39FC001A39F700D811D11248D
:0E06D600911DB29F700D811D1124911D08957C
:1006E400EC010E94AA030E94A903CE010E94AB035D
:0606F400CE010E94A703E5
:0E06FA0087B1876F87B988B1887088B9089575
:0E070800F8940E94A2030E94E20278940895E1
:0C0716008F7092B1907F892B82B90895FA
:0A0722008093280160932A010895D6
:08072C0080E80E948E0208958E
:0807340086E00E948B0308958A
:08073C0080E00E948B03089588
:060744000E94520308951B
:04074A000C9400000B
:04074E000E94A10064
:02075200089508
:02075400089506
:02075600089504
:00000001FF
