S01400007369724D6F746F72436F64652E7372656336
S113000071C0000079C0000077C0000075C0000016
S113001073C0000071C000006FC000006DC000001C
S11300206BC0000069C0000067C0000065C000002C
S113003063C0000061C000005FC000005DC000003C
S11300405BC0000059C0000057C0000055C000004C
S113005053C0000051C000004FC000004DC000005C
S11300604BC0000049C0000047C0000045C000006C
S113007043C0000041C000003FC000003DC000007C
S11300803BC0000039C0000037C0000035C000008C
S113009033C0000031C000002FC000002DC000009C
S11300A02BC0000029C0000027C0000025C00000AC
S11300B023C0000021C000001FC000001DC00000BC
S11300C01BC0000019C0000017C0000015C00000CC
S11300D013C0000011C000000FC000000DC00000DC
S11300E00BC0000011241FBECFEFD1E2DEBFCDBF95
S11300F000E00CBF3AD0DBC083CF81B18F6081B9FF
S113010082B1807F82B9EAE0F1E0808188618083F6
S1130110EBE0F1E08081886180830895EECF08955B
S11301208F7092B1907F892B82B9089586E0F8CFC1
S1130130089589E0F5CF089585E0F2CF08958AE027
S1130140EFCF089584E0ECCF089582E0E9CF0895DD
S113015081E0E6CF089588E0E3CF089580E0E0CF22
S11301600895F894DBDF78940895FBDFDFDF2FEF49
S11301708FEF9CE2215080409040E1F700C00000E6
S1130180EDDF2FEF8FE796E1215080409040E1F7BB
S113019000C00000CEDF2FEF8FEF9CE221508040A3
S11301A09040E1F700C00000D9DF2FEF8FE796E120
S11301B0215080409040E1F700C00000BDDF2FEFE8
S11301C08FEF9CE2215080409040E1F700C0000096
S11301D0C5DF2FEF8FE796E1215080409040E1F793
S11301E000C00000ACDF2FEF8FEF9CE22150804075
S11301F09040E1F700C00000B1DF2FEF8FE796E1F8
S1130200215080409040E1F700C000009BDF2FEFB9
S11302108FEF9CE2215080409040E1F700C0000045
S11302209DDF2FEF8FE796E1215080409040E1F76A
S113023000C000008ADF2FEF8FEF9CE22150804046
S11302409040E1F700C0000089DF2FEF8FE796E1CF
S1130250215080409040E1F700C0000079DF2FEF8B
S11302608FEF9CE2215080409040E1F700C00000F5
S113027075DF2FEF8FE796E1215080409040E1F742
S113028000C0000068DF2FEF8FEF9CE22150804018
S11302909040E1F700C0000061DF2FEF8FEF9CE298
S11302A0215080409040E1F700C000005FCFF894F7
S10502B0FFCF7A
S9030000FC
