:10000000B2C00000CFC00000CDC00000CBC00000D7
:10001000C9C00000C7C00000C5C00000C3C00000C8
:10002000C1C00000BFC00000BDC00000BBC00000D8
:10003000B9C00000B7C00000B5C00000B3C00000E8
:10004000B1C00000AFC00000ADC00000ABC00000F8
:10005000A9C00000A7C00000A5C00000A3C0000008
:10006000A1C000009FC000009DC000009BC0000018
:1000700099C0000097C0000095C0000093C0000028
:1000800091C000008FC000008DC000008BC0000038
:1000900089C0000087C0000085C0000083C0000048
:1000A00081C000007FC000007DC000007BC0000058
:1000B00079C0000077C0000075C0000073C0000068
:1000C00071C000006FC000006DC000006BC0000078
:1000D00069C0000067C0000065C0000063C0000088
:1000E00061C0000007634236B79BD8A71A3968562B
:1000F00018AEBAAB558C1D3CB7CC5763BD6DEDFD4A
:10010000753EF6177231BF000000803F0800000006
:10011000BE922449123EABAAAA2ABECDCCCC4C3EFC
:1001200000000080BEABAAAAAA3E00000000BF00EB
:100130000000803F0000000000084178D3BB4387E7
:10014000D1133D190E3CC3BD4282AD2B3E68EC82FB
:1001500076BED98FE1A93E4C80EFFFBE01C4FF7F80
:100160003F000000000011241FBECFEFD1E2DEBF30
:10017000CDBF00E00CBF12E0A0E0B2E0EEE3FFE094
:1001800000E00BBF02C007900D92A433B107D9F76E
:1001900022E0A4E3B2E001C01D92A034B207E1F76F
:1001A00007D3CBC62DCF87B1876F87B988B1887049
:1001B00088B9089586E69EE00197F1F7000088B1BE
:1001C0008E7F88B988B18D7F88B980E388B998B16E
:1001D000946098B9EFEFF7E43197F1F700C00000B1
:1001E00098B19B7F98B9E6E6FEE03197F1F7000001
:1001F00098B19E7F98B998B19D7F98B988B998B108
:10020000946098B9EFEFF7E43197F1F700C0000080
:1002100098B19B7F98B9E6E6FEE03197F1F70000D0
:1002200098B19E7F98B998B19D7F98B988B988B1E7
:10023000846088B98FEF97E40197F1F700C0000060
:1002400088B18B7F88B9E6E6FEE03197F1F70000D0
:1002500088B18E7F88B988B18D7F88B980E288B9EE
:1002600088B1846088B98FEF97E40197F1F700C0F7
:10027000000088B18B7F88B90895382F307F28B16E
:100280002F7028B998B1932B98B998B19E7F98B9DF
:1002900098B19D7F98B998B1946098B9EFEFF7E461
:1002A0003197F1F700C0000098B19B7F98B9829513
:1002B000807F98B19F7098B998B1892B88B988B11F
:1002C0008E7F88B988B18D7F88B988B1846088B9FC
:1002D0008FEF97E40197F1F700C0000088B18B7FA2
:1002E00088B9089567DF86E69EE00197F1F7000080
:1002F00088E2C3DF81E0C1DF86E0BFDF8EE0BDDFE3
:1003000080E8BBCF089580E8B8CF0895823069F0C7
:1003100018F4813031F00895833059F0843069F059
:1003200008958FE7860FA9CF08958FEB860FA5CF8D
:10033000089583E9860FA1CF089583ED860F9DCFA1
:100340000895CF93C42FE2DF2C2F207F98B19F70A8
:1003500098B988B1822B88B988B1816088B988B191
:100360008D7F88B988B1846088B98FEF97E4019751
:10037000F1F700C0000088B18B7F88B9C295C07FBB
:1003800088B18F7088B988B1C82BC8B988B181602D
:1003900088B988B18D7F88B988B1846088B98FEFBA
:1003A00097E40197F1F700C0000088B18B7F88B90E
:1003B000CF9108950F931F93CF93DF93082F162F9C
:1003C000EA0105C0612F802FBCDF21961F5F4881A5
:1003D0004111F8CFDF91CF911F910F910895EF92C6
:1003E000FF920F931F93CF93DF93D82FC62F7A01DD
:1003F00089018CDFFF204CF4F194E194F10848E28C
:1004000052E06C2F8D2FD6DFCF5FDD2311F0C111AD
:1004100002C079DF03C06C2F8D2F78DF0530110506
:1004200089F4C70160E177E252D5AB01405D5F4FCF
:1004300040933402509335026C2F8D2F82DFCF5FB3
:1004400081E001C080E00430110511F0813059F5E0
:10045000C70168EE73E03BD57093370260933602B4
:100460009B01ADECBCEC46D5969587959695879506
:1004700096958795AC01440F551F880F991F880FDB
:10048000991F880F991F840F951F281B390BA901ED
:10049000405D5F4F50933F0240933E026C2F8D2F83
:1004A00050DFCF5F81E00330110511F0813059F545
:1004B000C70164E670E00BD5709337026093360293
:1004C0009B01ADECBCEC16D59695879596958795D6
:1004D00096958795AC01440F551F880F991F880F7B
:1004E000991F880F991F840F951F281B390BA9018D
:1004F000405D5F4F50933B0240933A026C2F8D2F2B
:1005000020DFCF5F81E00230110511F0813059F515
:10051000C7016AE070E0DBD4709337026093360263
:100520009B01ADECBCECE6D49695879596958795A6
:1005300096958795AC01440F551F880F991F880F1A
:10054000991F880F991F840F951F281B390BA9012C
:10055000405D5F4F50933902409338026C2F8D2FCE
:10056000F0DECF5F81E00130110511F0813079F4C8
:10057000C7016AE070E0ABD4AC01405D5F4F4093CF
:100580003C0250933D026C2F8D2FDBDECF5F063097
:10059000110524F045E46C2F8D2FD3DEDF91CF9130
:1005A0001F910F91FF90EF900895883018F098E018
:1005B00090937B008770806280937C00EAE7F0E094
:1005C00080818064808380917A0084FFFCCF809159
:1005D0007900EAE7F0E090819061908310927B00CF
:1005E0000895682F70E080E090E0B6D12FEE39ECEE
:1005F00043E95FE3A2D29B01AC0160E070E080E8D8
:100600009FE311D12AE939EF4EE255E433D220E0DD
:1006100030E040E251E42ED26ED1CB016132734022
:1006200010F080E293E00895CF93DF938BE0BDDF7D
:10063000D8DFEC0123E030E0AC0165E082E0CFDE02
:10064000CE01DF91CF910895EAE7F0E01082109299
:100650007B0080E280937C0080E880BF86E8808316
:100660000895DF92EF92FF920F931F93CF93DF9342
:10067000CDB7DEB7E2970FB6F894DEBF0FBECDBFA1
:10068000D82E7B0189E0E0E0F2E0DE0111960190D6
:100690000D928A95E1F71A868AE0EAE2F2E0DE013D
:1006A0001B9601900D928A95E1F786E0EAE0F2E070
:1006B000DE01559601900D928A95E1F784E0FE01E6
:1006C0007B96DF01982F1D929A95E9F797E0E4E178
:1006D000F2E0DE015F9601900D929A95E1F7FE013E
:1006E000B69693E0DF011D929A95E9F796E0EEE168
:1006F000F2E0DE01999601900D929A95E1F7FE01E4
:10070000BF96DF011D928A95E9F742305105A1F0AD
:1007100024F44130510541F017C04330510541F0F8
:100720004430510569F010C08E010F5F1F4F18C093
:100730008E010B5E1F4F14C08E01055F1F4F10C04E
:100740008E01015E1F4F0CC08E01075D1F4F08C058
:100750006E2D8D2DF6DDBFEFEB1AFB0A0F5F1F4FDD
:10076000F80140814032A1F7E2960FB6F894DEBF5F
:100770000FBECDBFDF91CF911F910F91FF90EF90F2
:10078000DF90089541E050E064E070E081E090E0A7
:1007900068DF82B1866082B9089543E050E064E08A
:1007A00070E081E090E05DDF82B1856082B90895FC
:1007B0008FEF809304011092050188E087B918B883
:1007C00081B18F6081B982B1807F82B9EAE0F1E0C6
:1007D000808188618083EBE0F1E0808188618083A3
:1007E00010BA11BA1092070110920801DCDC7ADD10
:1007F0002BDF89DDC1E0D0E010C0E5E0F1E08081D1
:100800008C2B8083CC0FDD1FC1600EDF80559109DA
:10081000C39710F4C2DF01C0B5DFCF3FD10569F740
:10082000C1E0D0E0FACF0CD0EBC0E3D040F0DAD09A
:1008300030F021F45F3F19F0CCC0511115C1CFC089
:10084000F0D098F39923C9F35523B1F3951B550BB9
:10085000BB27AA2762177307840738F09F5F5F4F93
:10086000220F331F441FAA1FA9F333D00E2E3AF0D4
:10087000E0E830D091505040E695001CCAF729D0EE
:10088000FE2F27D0660F771F881FBB1F261737073D
:100890004807AB07B0E809F0BB0B802DBF01FF276D
:1008A00093585F4F2AF09E3F510568F092C0DCC01C
:1008B0005F3FECF3983EDCF3869577956795B795A7
:1008C000F7959F5FC9F7880F911D9695879597F9C2
:1008D0000895E1E0660F771F881FBB1F621773073B
:1008E0008407BA0720F0621B730B840BBA0BEE1F50
:1008F00088F7E095089504D06894B111B5C00895C3
:1009000098D088F09F5790F0B92F9927B751A0F051
:10091000D1F0660F771F881F991F1AF0BA95C9F793
:1009200012C0B13081F09FD0B1E008959CC0672F14
:10093000782F8827B85F39F0B93FCCF38695779543
:100940006795B395D9F73EF490958095709561952C
:100950007F4F8F4F9F4F0895E89409C097FB3EF457
:1009600090958095709561957F4F8F4F9F4F9923FC
:10097000A9F0F92F96E9BB279395F695879577957A
:100980006795B795F111F8CFFAF4BB0F11F460FF3A
:100990001BC06F5F7F4F8F4F9F4F16C0882311F092
:1009A00096E911C0772321F09EE8872F762F05C0A6
:1009B000662371F096E8862F70E060E02AF09A9541
:1009C000660F771F881FDAF7880F9695879597F936
:1009D000089597F99F6780E870E060E008959FEFC1
:1009E00080EC089500240A941616170618060906C6
:1009F000089500240A941216130614060506089595
:100A0000092E0394000C11F4882352F0BB0F40F41C
:100A1000BF2B11F460FF04C06F5F7F4F8F4F9F4F5C
:100A2000089557FD9058440F551F59F05F3F71F0DE
:100A30004795880F97FB991F61F09F3F79F0879545
:100A40000895121613061406551FF2CF4695F1DFCE
:100A500008C0161617061806991FF1CF869571055E
:100A6000610508940895E894BB2766277727CB0192
:100A700097F908950BD0C4CFB5DF28F0BADF18F08E
:100A8000952309F0A6CFABCF1124EECFCADFA0F398
:100A9000959FD1F3950F50E0551F629FF001729F13
:100AA000BB27F00DB11D639FAA27F00DB11DAA1F32
:100AB000649F6627B00DA11D661F829F2227B00D7F
:100AC000A11D621F739FB00DA11D621F839FA00D0A
:100AD000611D221F749F3327A00D611D231F849F5A
:100AE000600D211D822F762F6A2F11249F575040B1
:100AF0008AF0E1F088234AF0EE0FFF1FBB1F661F4C
:100B0000771F881F91505040A9F79E3F510570F004
:100B100060CFAACF5F3FECF3983EDCF386957795E4
:100B20006795B795F795E7959F5FC1F7FE2B880FFF
:100B3000911D9695879597F90895FA01EE0FFF1F7D
:100B400030962105310599F16115710561F4803800
:100B5000BFE39B0749F168949038810561F08038C4
:100B6000BFEF9B0741F0992342F5FF3FE1053105B7
:100B7000210511F1E8940894E795D901AA2329F4F5
:100B8000AB2FBE2FF85FD0F310C0FF5F70F4A695B7
:100B9000E0F7F73950F019F0FF3A38F49F779F9358
:100BA0000CD00F9007FC905808953EF018CF60E0ED
:100BB00070E080E89FE308954FE79F775F934F933E
:100BC0003F932F939ED02F913F914F915F9152DF92
:100BD00005C019F40EF0FDCE46CF01CF2ADFC8F3D1
:100BE0009638C0F707F80F92E8942BE33AEA48EBFF
:100BF0005FE74EDF0F920F920F924DB75EB70F92E5
:100C0000C0D0E4EEF0E016D04F915F91EF91FF91EC
:100C1000E595EE1FFF1F49F0FE57E0684427EE0FF1
:100C2000441FFA95E1F74195550B32D00F9007FE1E
:100C300026C00895DF93CF931F930F93FF92EF92F7
:100C4000DF927B018C01689405C0DA2EEF011EDF74
:100C5000FE01E894A5912591359145915591AEF30A
:100C6000EF01D4D0FE019701A801DA9479F7DF9063
:100C7000EF90FF900F911F91CF91DF9108959B010D
:100C8000AC0160E070E080E89FE3CDCDA2CE11C161
:100C9000D0DEE8F39923D9F3940F511DBBF39150A3
:100CA000504094F059F0882332F0660F771F881F68
:100CB00091505040C1F79E3F510544F7880F911D58
:100CC0009695879597F908955F3FACF0983E9CF014
:100CD000BB27869577956795B79508F4B16093958E
:100CE000C1F7BB0F58F711F460FFE8CF6F5F7F4F7C
:100CF0008F4F9F4FE3CFB8CE0EF0DBC070CE68941D
:100D000068CE97DEC8F39923D1F3C6F3DF93CF9370
:100D10001F930F93FF92C92FDD2788232AF0219775
:100D2000660F771F881FDAF720E030E040E85FEBBE
:100D30009FE3883920F0803E30F021968F7755D0A0
:100D4000ECE0F1E003C051D0E9E3F1E073DF8B01A7
:100D5000BE01EC01FB2E6F5771097595771F880B4B
:100D6000990BFCDD28E132E741E35FE38FDEAF2D35
:100D70009801AE01FF900F911F91CF91DF9146D066
:100D80003FCEFA01DC01AA0FBB1F9B01AC01BF578C
:100D900028F422273327442750781FC0B75188F4FE
:100DA000AB2F0024469537952795011CA395D2F3C8
:100DB000002069F0220F331F441FB395DAF30DD0E2
:100DC00013C061307105A0E88A07B94630F49B0171
:100DD000AC016627772788279078309621F020830A
:100DE00031834283538308955058BB27AA270ED0DE
:100DF00007CEF8DD30F0FDDD20F031F49F3F11F437
:100E00001EF4EDCD0EF4E095E7FBE3CDE92F09DE0E
:100E100080F3BA17620773078407950718F071F417
:100E20009EF521CE0EF4E0950B2EBA2FA02D0B01CE
:100E3000B90190010C01CA01A0011124FF27591B1F
:100E400099F0593F50F4503E68F11A16F040A22F25
:100E5000232F342F4427585FF3CF46953795279596
:100E6000A795F0405395C9F77EF41F16BA0B620B95
:100E7000730B840BBAF09150A1F0FF0FBB1F661FDC
:100E8000771F881FC2F70EC0BA0F621F731F841F1F
:100E900048F4879577956795B795F7959E3F08F045
:100EA000B3CF9395880F08F09927EE0F9795879504
:100EB00008959F3F31F0915020F48795779567957D
:100EC000B795880F911D9695879597F9089597FB8B
:100ED000072E16F4009406D077FD08D01AD007FC30
:100EE00005D03EF4909581959F4F0895709561953A
:100EF0007F4F0895A29FB001B39FC001A39F700DC3
:100F0000811D1124911DB29F700D811D1124911D11
:100F10000895AA1BBB1B51E107C0AA1FBB1FA61740
:100F2000B70710F0A61BB70B881F991F5A95A9F792
:0E0F300080959095BC01CD010895F894FFCFF7
:100F3E00464F52574152442000004C454654200023
:100F4E00000000005249474854200000000053544E
:100F5E004F502000000000002D004241434B5741EE
:040F6E0052442000C9
:00000001FF
