:1000000071C000008EC000008CC000008AC00000DB
:1000100088C0000086C0000084C0000082C00000CC
:1000200080C000007EC000007CC000007AC00000DC
:1000300078C0000076C0000074C0000072C00000EC
:1000400070C000006EC000006CC000006AC00000FC
:1000500068C0000066C0000064C0000062C000000C
:1000600060C000005EC000005CC000005AC000001C
:1000700058C0000056C0000054C0000052C000002C
:1000800050C000004EC000004CC000004AC000003C
:1000900048C0000046C0000044C0000042C000004C
:1000A00040C000003EC000003CC000003AC000005C
:1000B00038C0000036C0000034C0000032C000006C
:1000C00030C000002EC000002CC000002AC000007C
:1000D00028C0000026C0000024C0000022C000008C
:1000E00020C0000011241FBECFEFD1E2DEBFCDBF84
:1000F00000E00CBF12E0A0E0B2E0EEECF4E000E0C3
:100100000BBF02C007900D92A233B107D9F722E0CE
:10011000A2E3B2E001C01D92A233B207E1F765D1BC
:10012000D4C16ECF87B1876F87B988B1887088B91D
:10013000089586E69EE00197F1F7000088B18E7F72
:1001400088B988B18D7F88B980E388B998B1946007
:1001500098B9EFEFF7E43197F1F700C0000098B1DC
:100160009B7F98B9E6E6FEE03197F1F7000098B181
:100170009E7F98B998B19D7F98B988B998B19460DD
:1001800098B9EFEFF7E43197F1F700C0000098B1AC
:100190009B7F98B9E6E6FEE03197F1F7000098B151
:1001A0009E7F98B998B19D7F98B988B988B18460CD
:1001B00088B98FEF97E40197F1F700C0000088B18C
:1001C0008B7F88B9E6E6FEE03197F1F7000088B151
:1001D0008E7F88B988B18D7F88B980E288B988B16F
:1001E000846088B98FEF97E40197F1F700C00000B1
:1001F00088B18B7F88B90895382F307F28B12F7050
:1002000028B998B1932B98B998B19E7F98B998B1B5
:100210009D7F98B998B1946098B9EFEFF7E4319762
:10022000F1F700C0000098B19B7F98B98295807F5C
:1002300098B19F7098B998B1892B88B988B18E7F91
:1002400088B988B18D7F88B988B1846088B98FEF0B
:1002500097E40197F1F700C0000088B18B7F88B95F
:10026000089567DF86E69EE00197F1F7000088E2D7
:10027000C3DF81E0C1DF86E0BFDF8EE0BDDF80E865
:10028000BBCF089580E8B8CF0895823069F018F4A4
:10029000813031F00895833059F0843069F0089549
:1002A0008FE7860FA9CF08958FEB860FA5CF08950E
:1002B00083E9860FA1CF089583ED860F9DCF089522
:1002C000CF93C42FE2DF2C2F207F98B19F7098B975
:1002D00088B1822B88B988B1816088B988B18D7F57
:1002E00088B988B1846088B98FEF97E40197F1F7F6
:1002F00000C0000088B18B7F88B9C295C07F88B1EB
:100300008F7088B988B1C82BC8B988B1816088B9A5
:1003100088B18D7F88B988B1846088B98FEF97E400
:100320000197F1F700C0000088B18B7F88B9CF91A9
:10033000089588B1886088B92FE38DE093E021505B
:1003400080409040E1F700C0000088B118B82FE36A
:100350008DE093E0215080409040E1F700C0000024
:100360000895DF92EF92FF920F931F93CF93DF9345
:10037000CDB7DEB7E2970FB6F894DEBF0FBECDBFA4
:10038000D82E7B018FE1E0E0F2E0DE0111960190D2
:100390000D928A95E1F7FE01B09683E1DF011D928F
:1003A0008A95E9F78A010F5F1F4F08C06E2D8D2DCA
:1003B00087DFBFEFEB1AFB0A0F5F1F4FE1E0F0E0B2
:1003C000EC0FFD1FE00FF11F4081403279F7E296FC
:1003D0000FB6F894DEBF0FBECDBFDF91CF911F9156
:1003E0000F91FF90EF90DF9008958FEF80930401BD
:1003F0001092050188E087B918B894DE32DF42DF39
:10040000CC24C394D12C00E010E0EE24E394F12C32
:1004100057C0E5E0F1E080818E2980830F5F1F4F98
:10042000C0E0D0E00BC085DF2FE78AE196E02150E5
:1004300080409040E1F700C000002196C017D1072E
:1004400094F3EE0CFF1C6894E0F821E0C216D1048E
:1004500041F440E050E061E070E081E090E081DF55
:1004600023C082E0C816D10441F448E050E069E0BE
:1004700070E081E090E075DF17C093E0C916D10409
:1004800041F440E150E061E070E082E090E069DF3B
:100490000BC024E0C216D10439F449E150E06AE00F
:1004A00070E082E090E05DDF8FE79AE126E0815026
:1004B00090402040E1F700C000008FEFC81AD80A32
:0E04C0009FEFE916F104E1F3A4CFF894FFCF0B
:1004CE002050524153414E47204147415257414CD3
:1004DE002031393031303230312045434520000053
:1004EE0000000000000000000000000000000000FE
:0204FE000000FC
:00000001FF
