S0140000626C696E6B42757A7A6572322E737265634C
S113000071C0000079C0000077C0000075C0000016
S113001073C0000071C000006FC000006DC000001C
S11300206BC0000069C0000067C0000065C000002C
S113003063C0000061C000005FC000005DC000003C
S11300405BC0000059C0000057C0000055C000004C
S113005053C0000051C000004FC000004DC000005C
S11300604BC0000049C0000047C0000045C000006C
S113007043C0000041C000003FC000003DC000007C
S11300803BC0000039C0000037C0000035C000008C
S113009033C0000031C000002FC000002DC000009C
S11300A02BC0000029C0000027C0000025C00000AC
S11300B023C0000021C000001FC000001DC00000BC
S11300C01BC0000019C0000017C0000015C00000CC
S11300D013C0000011C000000FC000000DC00000DC
S11300E00BC0000011241FBECFEFD1E2DEBFCDBF95
S11300F000E00CBF1AD05FC083CF88B1886088B994
S11301002FE38DE093E0215080409040E1F700C060
S1130110000088B118B82FE38DE093E021508040AF
S11301209040E1F700C000000895EF92FF920F9312
S11301301F93CF93DF938FEF8093040110920501F7
S113014088E087B918B800E010E0EE24E394F12CBD
S113015025C0E5E0F1E080818E2980830F5F1F4F89
S1130160C0E0D0E00BC0C9DF2FE78AE196E0215060
S113017080409040E1F700C000002196C017D107ED
S113018094F3EE0CFF1C6894E0F82FE78AE196E004
S1130190215080409040E1F700C000002FEFE216AC
S11301A0F104B9F680E090E0DF91CF911F910F91B7
S10D01B0FF90EF900895F894FFCF3C
S9030000FC
